:10034B003F065B4F666D7D077F6F777C395E7971FA
:01035B0000A1
:10032300010F00011200011E03010C1901211E011E
:050333001119010E1E6E
:0703390093F5807F327E0086
:0B034000EF1FAC0670011E4C70F6228F
:10035C00438901758CFC758A18D2A9D2AFD28C2234
:1001AF00EF14601F14603114604024037050E50F8A
:1001BF007002D290D291C292E50F7002C293D29484
:1001CF00D29522E50F7002D290D291C292E50F70B4
:1001DF0002D293C294D29522E50F7002C290D291AF
:1001EF00D292E50F7014D2938010E50F7002D29067
:0F01FF00C291D292E50F7002D293D294C2952290
:10026D00AB07D2A2D2A1C2A3D2A4EB75F00A84F53A
:10027D001990034B120339D2A2D2A1D2A3C2A4EB7F
:10028D0075F00A8485F01AE51A120339C2A2D2A1BB
:10029D00D2A3D2A4ED75F00A84F519120339D2A2B6
:1002AD00C2A1D2A3D2A4ED75F00A8485F01AE51A85
:0A02BD0093F5807F327E00020340BB
:0C036C00AE07AF031201AFAF0602026D36
:07037800D288D2A8D2AF2207
:07037F00D28AD2AAD2AF22FC
:10020E0012035C12037812037F852114851116E503
:10021E001760028004E5186008AB1CAD1DAF1B8093
:10022E0006AB15AD16AF1412036CE50F60E1052099
:10023E00E5207002051FC394C8E51F940040D0E46A
:10024E00F51FF520E5157002B293E515B40202B262
:0F025E00900510E510C3940640B5E4F50F80B08D
:03000B00020016DA
:04001600C0E0C0D0B6
:10001A00758CFC758A18E51760260509E5097002D2
:10002A000508C394E8E5089403500302011E750805
:10003A0000750900E51D6002802875170002011E7F
:10004A00E518602B0509E50970020508C394E8E57F
:10005A00089403500302011E750800750900E51D86
:10006A006007151B151D02011E75180002011E05E9
:10007A0009E5097002050864E87004E5086403608C
:10008A000302011EF508F509E5157029E50B450A75
:10009A007007F50A750B018075E5166002805EE54A
:1000AA00107003750F01E50F706A0515F510151428
:1000BA00851E16805FE515B40115E516D394014037
:1000CA0002803A05151516850C14850E168045E52D
:1000DA00156402701CE51460028022E51070037535
:1000EA000F01E50F702E05151516F510851E1480E3
:1000FA0023E515B4031EE514D3940140061514151F
:10010A001680117515001516750A00750B008521E4
:04011A001485111621
:05011E00D0D0D0E0325A
:030003000202C72F
:1002C700C0E0C0D075D000C004C006C0077FE87E7C
:1002D7000312034020B20C751701751B05751D0528
:0E02E700751C00D007D006D004D0D0D0E03275
:030013000202F5F1
:1002F500C0E0C0D075D000C004C006C0077FE87E4E
:100305000312034020B30C751801751B05751D05F7
:0E031500751C02D007D006D004D0D0D0E03244
:03000000020123D7
:0C012300787FE4F6D8FD75812102016AA6
:10012F0002020EE493A3F8E493A34003F68001F2D6
:10013F0008DFF48029E493A3F85407240CC8C333D1
:10014F00C4540F4420C8834004F456800146F6DFA0
:10015F00E4800B0102040810204080900323E47E0A
:10016F00019360BCA3FF543F30E509541FFEE49395
:10017F00A360010ECF54C025E060A840B8E493A35C
:10018F00FAE493A3F8E493A3C8C582C8CAC583CA87
:10019F00F0A3C8C582C8CAC583CADFE9DEE780BE3F
:0103380000C4
:00000001FF
